{
  "contractName": "DappTokenSale",
  "abi": [
    {
      "constant": true,
      "inputs": [],
      "name": "startDate",
      "outputs": [
        {
          "name": "",
          "type": "uint256"
        }
      ],
      "payable": false,
      "stateMutability": "view",
      "type": "function"
    },
    {
      "constant": true,
      "inputs": [],
      "name": "tokensSold",
      "outputs": [
        {
          "name": "",
          "type": "uint256"
        }
      ],
      "payable": false,
      "stateMutability": "view",
      "type": "function"
    },
    {
      "constant": true,
      "inputs": [],
      "name": "tokenContract",
      "outputs": [
        {
          "name": "",
          "type": "address"
        }
      ],
      "payable": false,
      "stateMutability": "view",
      "type": "function"
    },
    {
      "constant": true,
      "inputs": [],
      "name": "maxAmount",
      "outputs": [
        {
          "name": "",
          "type": "uint256"
        }
      ],
      "payable": false,
      "stateMutability": "view",
      "type": "function"
    },
    {
      "constant": true,
      "inputs": [],
      "name": "minAmount",
      "outputs": [
        {
          "name": "",
          "type": "uint256"
        }
      ],
      "payable": false,
      "stateMutability": "view",
      "type": "function"
    },
    {
      "constant": true,
      "inputs": [],
      "name": "endDate",
      "outputs": [
        {
          "name": "",
          "type": "uint256"
        }
      ],
      "payable": false,
      "stateMutability": "view",
      "type": "function"
    },
    {
      "inputs": [
        {
          "name": "_tokenContract",
          "type": "address"
        }
      ],
      "payable": false,
      "stateMutability": "nonpayable",
      "type": "constructor"
    },
    {
      "anonymous": false,
      "inputs": [
        {
          "indexed": false,
          "name": "_buyer",
          "type": "address"
        },
        {
          "indexed": false,
          "name": "_amount",
          "type": "uint256"
        }
      ],
      "name": "Sell",
      "type": "event"
    },
    {
      "constant": true,
      "inputs": [],
      "name": "isSellingDate",
      "outputs": [
        {
          "name": "",
          "type": "bool"
        }
      ],
      "payable": false,
      "stateMutability": "view",
      "type": "function"
    },
    {
      "constant": false,
      "inputs": [
        {
          "name": "_endDate",
          "type": "uint256"
        }
      ],
      "name": "newEndDate",
      "outputs": [],
      "payable": false,
      "stateMutability": "nonpayable",
      "type": "function"
    },
    {
      "constant": false,
      "inputs": [
        {
          "name": "_numberOfTokens",
          "type": "uint256"
        }
      ],
      "name": "buyTokens",
      "outputs": [],
      "payable": true,
      "stateMutability": "payable",
      "type": "function"
    },
    {
      "constant": false,
      "inputs": [],
      "name": "endSale",
      "outputs": [],
      "payable": false,
      "stateMutability": "nonpayable",
      "type": "function"
    }
  ],
  "bytecode": "0x6080604052635b269390600355635b36659060045567016345785d8a0000600555678ac7230489e8000060065534801561003857600080fd5b506040516020806104fa83398101806040528101908080519060200190929190505050336000806101000a81548173ffffffffffffffffffffffffffffffffffffffff021916908373ffffffffffffffffffffffffffffffffffffffff16021790555080600160006101000a81548173ffffffffffffffffffffffffffffffffffffffff021916908373ffffffffffffffffffffffffffffffffffffffff1602179055505061040e806100ec6000396000f3006080604052600436106100a4576000357c0100000000000000000000000000000000000000000000000000000000900463ffffffff16806302458b87146100a95780630b97bc86146100d65780633610724e14610101578063380d831b14610121578063518ab2a81461013857806355a373d6146101635780635f48f393146101ba5780637c30ac8f146101e55780639b2cb5d814610214578063c24a0f8b1461023f575b600080fd5b3480156100b557600080fd5b506100d46004803603810190808035906020019092919050505061026a565b005b3480156100e257600080fd5b506100eb610274565b6040518082815260200191505060405180910390f35b61011f6004803603810190808035906020019092919050505061027a565b005b34801561012d57600080fd5b50610136610308565b005b34801561014457600080fd5b5061014d610389565b6040518082815260200191505060405180910390f35b34801561016f57600080fd5b5061017861038f565b604051808273ffffffffffffffffffffffffffffffffffffffff1673ffffffffffffffffffffffffffffffffffffffff16815260200191505060405180910390f35b3480156101c657600080fd5b506101cf6103b5565b6040518082815260200191505060405180910390f35b3480156101f157600080fd5b506101fa6103bb565b604051808215151515815260200191505060405180910390f35b34801561022057600080fd5b506102296103d6565b6040518082815260200191505060405180910390f35b34801561024b57600080fd5b506102546103dc565b6040518082815260200191505060405180910390f35b8060048190555050565b60035481565b6102826103bb565b151561028a57fe5b806002600082825401925050819055507f5e5e995ce3133561afceaa51a9a154d5db228cd7525d34df5185582c18d3df093382604051808373ffffffffffffffffffffffffffffffffffffffff1673ffffffffffffffffffffffffffffffffffffffff1681526020018281526020019250505060405180910390a150565b6000809054906101000a900473ffffffffffffffffffffffffffffffffffffffff1673ffffffffffffffffffffffffffffffffffffffff166108fc3073ffffffffffffffffffffffffffffffffffffffff16319081150290604051600060405180830381858888f19350505050158015610386573d6000803e3d6000fd5b50565b60025481565b600160009054906101000a900473ffffffffffffffffffffffffffffffffffffffff1681565b60065481565b600060035442101580156103d157506004544211155b905090565b60055481565b600454815600a165627a7a723058206fbdf50aa1d9db1dcd74b39eef6cc3926b55d256cbfcb841a4a8f225f515c8d30029",
  "source": "pragma solidity ^0.4.24;\nimport \"./DappToken.sol\";\n\ncontract DappTokenSale {\n    address admin;\n    DappToken public tokenContract;\n    uint256 public tokensSold;\n\n    // Start selling date, TYPE: timestamp\n    uint256 public startDate = 1529254800; // June 18, 2018 12:00:00 AM GMT+07:00\n\n    // End selling date, TYPE: timestamp\n    uint256 public endDate = 1530291600; // June 30, 2018 12:00:00 AM GMT+07:00\n\n    // Minimum acceptable purchase amount\n    uint256 public minAmount = 0.1 ether; // 0.1 ETH\n\n    // Maximum acceptable purchase amount\n    uint256 public maxAmount = 10 ether;  // 10 ETH\n\n  // Validate buying date\n    modifier whenSaleIsActive() {\n        assert(isSellingDate());\n        _;\n    }\n\n    // Trigger Events\n    event Sell(address _buyer, uint256 _amount);\n\n    // Constructor\n    constructor(DappToken _tokenContract) public {\n        // Assign an admin\n        admin = msg.sender;\n\n      // Assign Token contract\n        tokenContract = _tokenContract;\n    }\n    // function DappTokenSale(DappToken _tokenContract) public {\n    //   // Assign an admin\n    //   admin = msg.sender;\n\n    //   // Assign Token contract\n    //   tokenContract = _tokenContract;\n    // }\n\n    /**\n    * Validate buying date\n    */\n    function isSellingDate() public view  returns (bool) {\n        return (\n          now >= startDate &&\n          now <= endDate\n        );\n    }\n\n    /**\n    * Set endDate again in order to test\n    */\n    function newEndDate(uint256 _endDate) public {\n        endDate = _endDate;\n    }\n\n    // multiply\n    function multiply(uint x, uint y) internal pure returns (uint z) {\n      // require(y == 0 || (z = x * y) / y == x);\n        if (x == 0) {\n          return 0;\n        }\n        z = x * y;\n        assert(z / x == y);\n        return z;\n    }\n\n    // Buy token\n    function buyTokens(uint256 _numberOfTokens) public payable whenSaleIsActive {\n          // Require value is equal tokens\n          // require(msg.value == _numberOfTokens);\n\n          // Require contract has enough tokens\n          // require(tokenContract.balanceOf(this) >= _numberOfTokens);\n\n          // Require minimum acceptable purchase amount\n          // require(_numberOfTokens >= minAmount);\n\n          // Require maximum acceptable purchase amount\n          // require(_numberOfTokens <= maxAmount);\n\n\n          // Require that a transfer is succesful\n          // require(tokenContract.transfer(msg.sender, _numberOfTokens));\n\n          // Keep track of toke Sold\n            tokensSold += _numberOfTokens;\n          // Trigger Sell Event\n            emit Sell(msg.sender, _numberOfTokens);\n    }\n\n    // Ending Token DappTokenSale\n    function endSale() public {\n      // Require admin\n        // require(msg.sender == admin);\n\n      // Transfer remaining tokens to admin\n        // require(tokenContract.transfer(admin, tokenContract.balanceOf(this)));\n\n      // Transfer the balance to the admin\n        admin.transfer(address(this).balance);\n    }\n}",
  "sourcePath": "/home/vupq/Desktop/XXX/smart-contract-erc20/contracts/DappTokenSale.sol",
  "compiler": {
    "name": "solc",
    "version": "0.4.24+commit.e67f0147.Emscripten.clang"
  },
  "schemaVersion": "2.0.1",
  "updatedAt": "2018-10-17T03:01:02.878Z"
}